{
  "abi": [
    {
      "type": "function",
      "name": "allSeries",
      "inputs": [
        {
          "name": "",
          "type": "uint256",
          "internalType": "uint256"
        }
      ],
      "outputs": [
        {
          "name": "",
          "type": "address",
          "internalType": "address"
        }
      ],
      "stateMutability": "view"
    },
    {
      "type": "function",
      "name": "createSeries",
      "inputs": [
        {
          "name": "_name",
          "type": "string",
          "internalType": "string"
        },
        {
          "name": "_symbol",
          "type": "string",
          "internalType": "string"
        },
        {
          "name": "_metadataURI",
          "type": "string",
          "internalType": "string"
        }
      ],
      "outputs": [
        {
          "name": "",
          "type": "address",
          "internalType": "address"
        }
      ],
      "stateMutability": "nonpayable"
    },
    {
      "type": "function",
      "name": "creatorToSeries",
      "inputs": [
        {
          "name": "",
          "type": "address",
          "internalType": "address"
        },
        {
          "name": "",
          "type": "uint256",
          "internalType": "uint256"
        }
      ],
      "outputs": [
        {
          "name": "",
          "type": "address",
          "internalType": "address"
        }
      ],
      "stateMutability": "view"
    },
    {
      "type": "function",
      "name": "getAllSeries",
      "inputs": [],
      "outputs": [
        {
          "name": "",
          "type": "address[]",
          "internalType": "address[]"
        }
      ],
      "stateMutability": "view"
    },
    {
      "type": "function",
      "name": "getCreatorSeries",
      "inputs": [
        {
          "name": "creator",
          "type": "address",
          "internalType": "address"
        }
      ],
      "outputs": [
        {
          "name": "",
          "type": "address[]",
          "internalType": "address[]"
        }
      ],
      "stateMutability": "view"
    },
    {
      "type": "event",
      "name": "SeriesCreated",
      "inputs": [
        {
          "name": "creator",
          "type": "address",
          "indexed": true,
          "internalType": "address"
        },
        {
          "name": "series",
          "type": "address",
          "indexed": false,
          "internalType": "address"
        },
        {
          "name": "name",
          "type": "string",
          "indexed": false,
          "internalType": "string"
        },
        {
          "name": "symbol",
          "type": "string",
          "indexed": false,
          "internalType": "string"
        }
      ],
      "anonymous": false
    }
  ],
  "bytecode": {
    "object": "0x6080604052348015600e575f5ffd5b50613a558061001c5f395ff3fe608060405234801561000f575f5ffd5b5060043610610055575f3560e01c806319cd9dcb1461005957806365514909146100895780636b9a7cc9146100a7578063dc34401f146100d7578063efc934bc14610107575b5f5ffd5b610073600480360381019061006e9190610660565b610137565b6040516100809190610743565b60405180910390f35b610091610332565b60405161009e9190610813565b60405180910390f35b6100c160048036038101906100bc919061085d565b6103bd565b6040516100ce9190610813565b60405180910390f35b6100f160048036038101906100ec91906108bb565b610484565b6040516100fe9190610743565b60405180910390f35b610121600480360381019061011c91906108f9565b6104cb565b60405161012e9190610743565b60405180910390f35b5f5f84848460405161014890610506565b61015493929190610984565b604051809103905ff08015801561016d573d5f5f3e3d5ffd5b5090508073ffffffffffffffffffffffffffffffffffffffff1663f2fde38b336040518263ffffffff1660e01b81526004016101a99190610743565b5f604051808303815f87803b1580156101c0575f5ffd5b505af11580156101d2573d5f5f3e3d5ffd5b505050505f8190505f5f3373ffffffffffffffffffffffffffffffffffffffff1673ffffffffffffffffffffffffffffffffffffffff1681526020019081526020015f2081908060018154018082558091505060019003905f5260205f20015f9091909190916101000a81548173ffffffffffffffffffffffffffffffffffffffff021916908373ffffffffffffffffffffffffffffffffffffffff160217905550600181908060018154018082558091505060019003905f5260205f20015f9091909190916101000a81548173ffffffffffffffffffffffffffffffffffffffff021916908373ffffffffffffffffffffffffffffffffffffffff1602179055503373ffffffffffffffffffffffffffffffffffffffff167fa382d5efb376c0547947e156a35cb2ea25d596b7431bf084df4039dc0438dace82888860405161031e939291906109ce565b60405180910390a280925050509392505050565b606060018054806020026020016040519081016040528092919081815260200182805480156103b357602002820191905f5260205f20905b815f9054906101000a900473ffffffffffffffffffffffffffffffffffffffff1673ffffffffffffffffffffffffffffffffffffffff168152602001906001019080831161036a575b5050505050905090565b60605f5f8373ffffffffffffffffffffffffffffffffffffffff1673ffffffffffffffffffffffffffffffffffffffff1681526020019081526020015f2080548060200260200160405190810160405280929190818152602001828054801561047857602002820191905f5260205f20905b815f9054906101000a900473ffffffffffffffffffffffffffffffffffffffff1673ffffffffffffffffffffffffffffffffffffffff168152602001906001019080831161042f575b50505050509050919050565b5f602052815f5260405f20818154811061049c575f80fd5b905f5260205f20015f915091509054906101000a900473ffffffffffffffffffffffffffffffffffffffff1681565b600181815481106104da575f80fd5b905f5260205f20015f915054906101000a900473ffffffffffffffffffffffffffffffffffffffff1681565b61300e80610a1283390190565b5f604051905090565b5f5ffd5b5f5ffd5b5f5ffd5b5f5ffd5b5f601f19601f8301169050919050565b7f4e487b71000000000000000000000000000000000000000000000000000000005f52604160045260245ffd5b6105728261052c565b810181811067ffffffffffffffff821117156105915761059061053c565b5b80604052505050565b5f6105a3610513565b90506105af8282610569565b919050565b5f67ffffffffffffffff8211156105ce576105cd61053c565b5b6105d78261052c565b9050602081019050919050565b828183375f83830152505050565b5f6106046105ff846105b4565b61059a565b9050828152602081018484840111156106205761061f610528565b5b61062b8482856105e4565b509392505050565b5f82601f83011261064757610646610524565b5b81356106578482602086016105f2565b91505092915050565b5f5f5f606084860312156106775761067661051c565b5b5f84013567ffffffffffffffff81111561069457610693610520565b5b6106a086828701610633565b935050602084013567ffffffffffffffff8111156106c1576106c0610520565b5b6106cd86828701610633565b925050604084013567ffffffffffffffff8111156106ee576106ed610520565b5b6106fa86828701610633565b9150509250925092565b5f73ffffffffffffffffffffffffffffffffffffffff82169050919050565b5f61072d82610704565b9050919050565b61073d81610723565b82525050565b5f6020820190506107565f830184610734565b92915050565b5f81519050919050565b5f82825260208201905092915050565b5f819050602082019050919050565b61078e81610723565b82525050565b5f61079f8383610785565b60208301905092915050565b5f602082019050919050565b5f6107c18261075c565b6107cb8185610766565b93506107d683610776565b805f5b838110156108065781516107ed8882610794565b97506107f8836107ab565b9250506001810190506107d9565b5085935050505092915050565b5f6020820190508181035f83015261082b81846107b7565b905092915050565b61083c81610723565b8114610846575f5ffd5b50565b5f8135905061085781610833565b92915050565b5f602082840312156108725761087161051c565b5b5f61087f84828501610849565b91505092915050565b5f819050919050565b61089a81610888565b81146108a4575f5ffd5b50565b5f813590506108b581610891565b92915050565b5f5f604083850312156108d1576108d061051c565b5b5f6108de85828601610849565b92505060206108ef858286016108a7565b9150509250929050565b5f6020828403121561090e5761090d61051c565b5b5f61091b848285016108a7565b91505092915050565b5f81519050919050565b5f82825260208201905092915050565b8281835e5f83830152505050565b5f61095682610924565b610960818561092e565b935061097081856020860161093e565b6109798161052c565b840191505092915050565b5f6060820190508181035f83015261099c818661094c565b905081810360208301526109b0818561094c565b905081810360408301526109c4818461094c565b9050949350505050565b5f6060820190506109e15f830186610734565b81810360208301526109f3818561094c565b90508181036040830152610a07818461094c565b905094935050505056fe608060405234801561000f575f5ffd5b5060405161300e38038061300e833981810160405281019061003191906102fd565b338383815f908161004291906105b1565b50806001908161005291906105b1565b5050505f73ffffffffffffffffffffffffffffffffffffffff168173ffffffffffffffffffffffffffffffffffffffff16036100c5575f6040517f1e4fbdf70000000000000000000000000000000000000000000000000000000081526004016100bc91906106bf565b60405180910390fd5b6100d4816100ed60201b60201c565b5080600890816100e491906105b1565b505050506106d8565b5f60065f9054906101000a900473ffffffffffffffffffffffffffffffffffffffff1690508160065f6101000a81548173ffffffffffffffffffffffffffffffffffffffff021916908373ffffffffffffffffffffffffffffffffffffffff1602179055508173ffffffffffffffffffffffffffffffffffffffff168173ffffffffffffffffffffffffffffffffffffffff167f8be0079c531659141344cd1fd0a4f28419497f9722a3daafe3b4186f6b6457e060405160405180910390a35050565b5f604051905090565b5f5ffd5b5f5ffd5b5f5ffd5b5f5ffd5b5f601f19601f8301169050919050565b7f4e487b71000000000000000000000000000000000000000000000000000000005f52604160045260245ffd5b61020f826101c9565b810181811067ffffffffffffffff8211171561022e5761022d6101d9565b5b80604052505050565b5f6102406101b0565b905061024c8282610206565b919050565b5f67ffffffffffffffff82111561026b5761026a6101d9565b5b610274826101c9565b9050602081019050919050565b8281835e5f83830152505050565b5f6102a161029c84610251565b610237565b9050828152602081018484840111156102bd576102bc6101c5565b5b6102c8848285610281565b509392505050565b5f82601f8301126102e4576102e36101c1565b5b81516102f484826020860161028f565b91505092915050565b5f5f5f60608486031215610314576103136101b9565b5b5f84015167ffffffffffffffff811115610331576103306101bd565b5b61033d868287016102d0565b935050602084015167ffffffffffffffff81111561035e5761035d6101bd565b5b61036a868287016102d0565b925050604084015167ffffffffffffffff81111561038b5761038a6101bd565b5b610397868287016102d0565b9150509250925092565b5f81519050919050565b7f4e487b71000000000000000000000000000000000000000000000000000000005f52602260045260245ffd5b5f60028204905060018216806103ef57607f821691505b602082108103610402576104016103ab565b5b50919050565b5f819050815f5260205f209050919050565b5f6020601f8301049050919050565b5f82821b905092915050565b5f600883026104647fffffffffffffffffffffffffffffffffffffffffffffffffffffffffffffffff82610429565b61046e8683610429565b95508019841693508086168417925050509392505050565b5f819050919050565b5f819050919050565b5f6104b26104ad6104a884610486565b61048f565b610486565b9050919050565b5f819050919050565b6104cb83610498565b6104df6104d7826104b9565b848454610435565b825550505050565b5f5f905090565b6104f66104e7565b6105018184846104c2565b505050565b5b81811015610524576105195f826104ee565b600181019050610507565b5050565b601f8211156105695761053a81610408565b6105438461041a565b81016020851015610552578190505b61056661055e8561041a565b830182610506565b50505b505050565b5f82821c905092915050565b5f6105895f198460080261056e565b1980831691505092915050565b5f6105a1838361057a565b9150826002028217905092915050565b6105ba826103a1565b67ffffffffffffffff8111156105d3576105d26101d9565b5b6105dd82546103d8565b6105e8828285610528565b5f60209050601f831160018114610619575f8415610607578287015190505b6106118582610596565b865550610678565b601f19841661062786610408565b5f5b8281101561064e57848901518255600182019150602085019450602081019050610629565b8683101561066b5784890151610667601f89168261057a565b8355505b6001600288020188555050505b505050505050565b5f73ffffffffffffffffffffffffffffffffffffffff82169050919050565b5f6106a982610680565b9050919050565b6106b98161069f565b82525050565b5f6020820190506106d25f8301846106b0565b92915050565b612929806106e55f395ff3fe608060405234801561000f575f5ffd5b5060043610610135575f3560e01c80636352211e116100b6578063a22cb4651161007a578063a22cb46514610313578063b88d4fde1461032f578063c87b56dd1461034b578063e9213ca01461037b578063e985e9c514610399578063f2fde38b146103c957610135565b80636352211e1461026d57806370a082311461029d578063715018a6146102cd5780638da5cb5b146102d757806395d89b41146102f557610135565b806317be85c3116100fd57806317be85c3146101dd57806317ce42bd146101fb57806323b872dd146102175780633c130d901461023357806342842e0e1461025157610135565b806301ffc9a71461013957806306fdde0314610169578063081812fc14610187578063095ea7b3146101b757806314f710fe146101d3575b5f5ffd5b610153600480360381019061014e9190611c21565b6103e5565b6040516101609190611c66565b60405180910390f35b6101716104c6565b60405161017e9190611cef565b60405180910390f35b6101a1600480360381019061019c9190611d42565b610555565b6040516101ae9190611dac565b60405180910390f35b6101d160048036038101906101cc9190611def565b610570565b005b6101db610586565b005b6101e56105ee565b6040516101f29190611f30565b60405180910390f35b6102156004803603810190610210919061207c565b6106c2565b005b610231600480360381019061022c91906120c3565b61073c565b005b61023b61083b565b6040516102489190611cef565b60405180910390f35b61026b600480360381019061026691906120c3565b6108cb565b005b61028760048036038101906102829190611d42565b6108ea565b6040516102949190611dac565b60405180910390f35b6102b760048036038101906102b29190612113565b6108fb565b6040516102c4919061214d565b60405180910390f35b6102d56109b1565b005b6102df6109c4565b6040516102ec9190611dac565b60405180910390f35b6102fd6109ec565b60405161030a9190611cef565b60405180910390f35b61032d60048036038101906103289190612190565b610a7c565b005b6103496004803603810190610344919061226c565b610a92565b005b61036560048036038101906103609190611d42565b610ab7565b6040516103729190611cef565b60405180910390f35b610383610b1d565b6040516103909190611cef565b60405180910390f35b6103b360048036038101906103ae91906122ec565b610c1f565b6040516103c09190611c66565b60405180910390f35b6103e360048036038101906103de9190612113565b610cad565b005b5f7f80ac58cd000000000000000000000000000000000000000000000000000000007bffffffffffffffffffffffffffffffffffffffffffffffffffffffff1916827bffffffffffffffffffffffffffffffffffffffffffffffffffffffff191614806104af57507f5b5e139f000000000000000000000000000000000000000000000000000000007bffffffffffffffffffffffffffffffffffffffffffffffffffffffff1916827bffffffffffffffffffffffffffffffffffffffffffffffffffffffff1916145b806104bf57506104be82610d31565b5b9050919050565b60605f80546104d490612357565b80601f016020809104026020016040519081016040528092919081815260200182805461050090612357565b801561054b5780601f106105225761010080835404028352916020019161054b565b820191905f5260205f20905b81548152906001019060200180831161052e57829003601f168201915b5050505050905090565b5f61055f82610d9a565b5061056982610e20565b9050919050565b610582828261057d610e59565b610e60565b5050565b5f60075f8154610595906123b4565b91905081905590506105a73382610e72565b803373ffffffffffffffffffffffffffffffffffffffff167f30385c845b448a36257a6a1716e6ad2e1bc2cbe333cde1e69fe849ad6511adfe60405160405180910390a350565b60606009805480602002602001604051908101604052809291908181526020015f905b828210156106b9578382905f5260205f2001805461062e90612357565b80601f016020809104026020016040519081016040528092919081815260200182805461065a90612357565b80156106a55780601f1061067c576101008083540402835291602001916106a5565b820191905f5260205f20905b81548152906001019060200180831161068857829003601f168201915b505050505081526020019060010190610611565b50505050905090565b6106ca610e8f565b600981908060018154018082558091505060019003905f5260205f20015f9091909190915090816106fb919061259b565b506009805490507f3ad48c8b9fbbee22f569b4f8067c1de9f04ec070ac14b49b34e88a8989722f9e826040516107319190611cef565b60405180910390a250565b5f73ffffffffffffffffffffffffffffffffffffffff168273ffffffffffffffffffffffffffffffffffffffff16036107ac575f6040517f64a0ae920000000000000000000000000000000000000000000000000000000081526004016107a39190611dac565b60405180910390fd5b5f6107bf83836107ba610e59565b610f16565b90508373ffffffffffffffffffffffffffffffffffffffff168173ffffffffffffffffffffffffffffffffffffffff1614610835578382826040517f64283d7b00000000000000000000000000000000000000000000000000000000815260040161082c9392919061266a565b60405180910390fd5b50505050565b60606008805461084a90612357565b80601f016020809104026020016040519081016040528092919081815260200182805461087690612357565b80156108c15780601f10610898576101008083540402835291602001916108c1565b820191905f5260205f20905b8154815290600101906020018083116108a457829003601f168201915b5050505050905090565b6108e583838360405180602001604052805f815250610a92565b505050565b5f6108f482610d9a565b9050919050565b5f5f73ffffffffffffffffffffffffffffffffffffffff168273ffffffffffffffffffffffffffffffffffffffff160361096c575f6040517f89c62b640000000000000000000000000000000000000000000000000000000081526004016109639190611dac565b60405180910390fd5b60035f8373ffffffffffffffffffffffffffffffffffffffff1673ffffffffffffffffffffffffffffffffffffffff1681526020019081526020015f20549050919050565b6109b9610e8f565b6109c25f611121565b565b5f60065f9054906101000a900473ffffffffffffffffffffffffffffffffffffffff16905090565b6060600180546109fb90612357565b80601f0160208091040260200160405190810160405280929190818152602001828054610a2790612357565b8015610a725780601f10610a4957610100808354040283529160200191610a72565b820191905f5260205f20905b815481529060010190602001808311610a5557829003601f168201915b5050505050905090565b610a8e610a87610e59565b83836111e4565b5050565b610a9d84848461073c565b610ab1610aa8610e59565b8585858561134d565b50505050565b6060610ac282610d9a565b505f610acc6114f9565b90505f815111610aea5760405180602001604052805f815250610b15565b80610af48461150f565b604051602001610b059291906126d9565b6040516020818303038152906040525b915050919050565b60605f60098054905011610b66576040517f08c379a0000000000000000000000000000000000000000000000000000000008152600401610b5d90612746565b60405180910390fd5b60096001600980549050610b7a9190612764565b81548110610b8b57610b8a612797565b5b905f5260205f20018054610b9e90612357565b80601f0160208091040260200160405190810160405280929190818152602001828054610bca90612357565b8015610c155780601f10610bec57610100808354040283529160200191610c15565b820191905f5260205f20905b815481529060010190602001808311610bf857829003601f168201915b5050505050905090565b5f60055f8473ffffffffffffffffffffffffffffffffffffffff1673ffffffffffffffffffffffffffffffffffffffff1681526020019081526020015f205f8373ffffffffffffffffffffffffffffffffffffffff1673ffffffffffffffffffffffffffffffffffffffff1681526020019081526020015f205f9054906101000a900460ff16905092915050565b610cb5610e8f565b5f73ffffffffffffffffffffffffffffffffffffffff168173ffffffffffffffffffffffffffffffffffffffff1603610d25575f6040517f1e4fbdf7000000000000000000000000000000000000000000000000000000008152600401610d1c9190611dac565b60405180910390fd5b610d2e81611121565b50565b5f7f01ffc9a7000000000000000000000000000000000000000000000000000000007bffffffffffffffffffffffffffffffffffffffffffffffffffffffff1916827bffffffffffffffffffffffffffffffffffffffffffffffffffffffff1916149050919050565b5f5f610da5836115d9565b90505f73ffffffffffffffffffffffffffffffffffffffff168173ffffffffffffffffffffffffffffffffffffffff1603610e1757826040517f7e273289000000000000000000000000000000000000000000000000000000008152600401610e0e919061214d565b60405180910390fd5b80915050919050565b5f60045f8381526020019081526020015f205f9054906101000a900473ffffffffffffffffffffffffffffffffffffffff169050919050565b5f33905090565b610e6d8383836001611612565b505050565b610e8b828260405180602001604052805f8152506117d1565b5050565b610e97610e59565b73ffffffffffffffffffffffffffffffffffffffff16610eb56109c4565b73ffffffffffffffffffffffffffffffffffffffff1614610f1457610ed8610e59565b6040517f118cdaa7000000000000000000000000000000000000000000000000000000008152600401610f0b9190611dac565b60405180910390fd5b565b5f5f610f21846115d9565b90505f73ffffffffffffffffffffffffffffffffffffffff168373ffffffffffffffffffffffffffffffffffffffff1614610f6257610f618184866117f4565b5b5f73ffffffffffffffffffffffffffffffffffffffff168173ffffffffffffffffffffffffffffffffffffffff1614610fed57610fa15f855f5f611612565b600160035f8373ffffffffffffffffffffffffffffffffffffffff1673ffffffffffffffffffffffffffffffffffffffff1681526020019081526020015f205f82825403925050819055505b5f73ffffffffffffffffffffffffffffffffffffffff168573ffffffffffffffffffffffffffffffffffffffff161461106c57600160035f8773ffffffffffffffffffffffffffffffffffffffff1673ffffffffffffffffffffffffffffffffffffffff1681526020019081526020015f205f82825401925050819055505b8460025f8681526020019081526020015f205f6101000a81548173ffffffffffffffffffffffffffffffffffffffff021916908373ffffffffffffffffffffffffffffffffffffffff160217905550838573ffffffffffffffffffffffffffffffffffffffff168273ffffffffffffffffffffffffffffffffffffffff167fddf252ad1be2c89b69c2b068fc378daa952ba7f163c4a11628f55a4df523b3ef60405160405180910390a4809150509392505050565b5f60065f9054906101000a900473ffffffffffffffffffffffffffffffffffffffff1690508160065f6101000a81548173ffffffffffffffffffffffffffffffffffffffff021916908373ffffffffffffffffffffffffffffffffffffffff1602179055508173ffffffffffffffffffffffffffffffffffffffff168173ffffffffffffffffffffffffffffffffffffffff167f8be0079c531659141344cd1fd0a4f28419497f9722a3daafe3b4186f6b6457e060405160405180910390a35050565b5f73ffffffffffffffffffffffffffffffffffffffff168273ffffffffffffffffffffffffffffffffffffffff160361125457816040517f5b08ba1800000000000000000000000000000000000000000000000000000000815260040161124b9190611dac565b60405180910390fd5b8060055f8573ffffffffffffffffffffffffffffffffffffffff1673ffffffffffffffffffffffffffffffffffffffff1681526020019081526020015f205f8473ffffffffffffffffffffffffffffffffffffffff1673ffffffffffffffffffffffffffffffffffffffff1681526020019081526020015f205f6101000a81548160ff0219169083151502179055508173ffffffffffffffffffffffffffffffffffffffff168373ffffffffffffffffffffffffffffffffffffffff167f17307eab39ab6107e8899845ad3d59bd9653f200f220920489ca2b5937696c31836040516113409190611c66565b60405180910390a3505050565b5f8373ffffffffffffffffffffffffffffffffffffffff163b11156114f2578273ffffffffffffffffffffffffffffffffffffffff1663150b7a02868685856040518563ffffffff1660e01b81526004016113ab9493929190612816565b6020604051808303815f875af19250505080156113e657506040513d601f19601f820116820180604052508101906113e39190612874565b60015b611467573d805f8114611414576040519150601f19603f3d011682016040523d82523d5f602084013e611419565b606091505b505f81510361145f57836040517f64a0ae920000000000000000000000000000000000000000000000000000000081526004016114569190611dac565b60405180910390fd5b805160208201fd5b63150b7a0260e01b7bffffffffffffffffffffffffffffffffffffffffffffffffffffffff1916817bffffffffffffffffffffffffffffffffffffffffffffffffffffffff1916146114f057836040517f64a0ae920000000000000000000000000000000000000000000000000000000081526004016114e79190611dac565b60405180910390fd5b505b5050505050565b606060405180602001604052805f815250905090565b60605f600161151d846118b7565b0190505f8167ffffffffffffffff81111561153b5761153a611f58565b5b6040519080825280601f01601f19166020018201604052801561156d5781602001600182028036833780820191505090505b5090505f82602083010190505b6001156115ce578080600190039150507f3031323334353637383961626364656600000000000000000000000000000000600a86061a8153600a85816115c3576115c261289f565b5b0494505f850361157a575b819350505050919050565b5f60025f8381526020019081526020015f205f9054906101000a900473ffffffffffffffffffffffffffffffffffffffff169050919050565b808061164a57505f73ffffffffffffffffffffffffffffffffffffffff168273ffffffffffffffffffffffffffffffffffffffff1614155b1561177c575f61165984610d9a565b90505f73ffffffffffffffffffffffffffffffffffffffff168373ffffffffffffffffffffffffffffffffffffffff16141580156116c357508273ffffffffffffffffffffffffffffffffffffffff168173ffffffffffffffffffffffffffffffffffffffff1614155b80156116d657506116d48184610c1f565b155b1561171857826040517fa9fbf51f00000000000000000000000000000000000000000000000000000000815260040161170f9190611dac565b60405180910390fd5b811561177a57838573ffffffffffffffffffffffffffffffffffffffff168273ffffffffffffffffffffffffffffffffffffffff167f8c5be1e5ebec7d5bd14f71427d1e84f3dd0314c0f7b2291e5b200ac8c7c3b92560405160405180910390a45b505b8360045f8581526020019081526020015f205f6101000a81548173ffffffffffffffffffffffffffffffffffffffff021916908373ffffffffffffffffffffffffffffffffffffffff16021790555050505050565b6117db8383611a08565b6117ef6117e6610e59565b5f85858561134d565b505050565b6117ff838383611afb565b6118b2575f73ffffffffffffffffffffffffffffffffffffffff168373ffffffffffffffffffffffffffffffffffffffff160361187357806040517f7e27328900000000000000000000000000000000000000000000000000000000815260040161186a919061214d565b60405180910390fd5b81816040517f177e802f0000000000000000000000000000000000000000000000000000000081526004016118a99291906128cc565b60405180910390fd5b505050565b5f5f5f90507a184f03e93ff9f4daa797ed6e38ed64bf6a1f0100000000000000008310611913577a184f03e93ff9f4daa797ed6e38ed64bf6a1f01000000000000000083816119095761190861289f565b5b0492506040810190505b6d04ee2d6d415b85acef81000000008310611950576d04ee2d6d415b85acef810000000083816119465761194561289f565b5b0492506020810190505b662386f26fc10000831061197f57662386f26fc1000083816119755761197461289f565b5b0492506010810190505b6305f5e10083106119a8576305f5e100838161199e5761199d61289f565b5b0492506008810190505b61271083106119cd5761271083816119c3576119c261289f565b5b0492506004810190505b606483106119f057606483816119e6576119e561289f565b5b0492506002810190505b600a83106119ff576001810190505b80915050919050565b5f73ffffffffffffffffffffffffffffffffffffffff168273ffffffffffffffffffffffffffffffffffffffff1603611a78575f6040517f64a0ae92000000000000000000000000000000000000000000000000000000008152600401611a6f9190611dac565b60405180910390fd5b5f611a8483835f610f16565b90505f73ffffffffffffffffffffffffffffffffffffffff168173ffffffffffffffffffffffffffffffffffffffff1614611af6575f6040517f73c6ac6e000000000000000000000000000000000000000000000000000000008152600401611aed9190611dac565b60405180910390fd5b505050565b5f5f73ffffffffffffffffffffffffffffffffffffffff168373ffffffffffffffffffffffffffffffffffffffff1614158015611bb257508273ffffffffffffffffffffffffffffffffffffffff168473ffffffffffffffffffffffffffffffffffffffff161480611b735750611b728484610c1f565b5b80611bb157508273ffffffffffffffffffffffffffffffffffffffff16611b9983610e20565b73ffffffffffffffffffffffffffffffffffffffff16145b5b90509392505050565b5f604051905090565b5f5ffd5b5f5ffd5b5f7fffffffff0000000000000000000000000000000000000000000000000000000082169050919050565b611c0081611bcc565b8114611c0a575f5ffd5b50565b5f81359050611c1b81611bf7565b92915050565b5f60208284031215611c3657611c35611bc4565b5b5f611c4384828501611c0d565b91505092915050565b5f8115159050919050565b611c6081611c4c565b82525050565b5f602082019050611c795f830184611c57565b92915050565b5f81519050919050565b5f82825260208201905092915050565b8281835e5f83830152505050565b5f601f19601f8301169050919050565b5f611cc182611c7f565b611ccb8185611c89565b9350611cdb818560208601611c99565b611ce481611ca7565b840191505092915050565b5f6020820190508181035f830152611d078184611cb7565b905092915050565b5f819050919050565b611d2181611d0f565b8114611d2b575f5ffd5b50565b5f81359050611d3c81611d18565b92915050565b5f60208284031215611d5757611d56611bc4565b5b5f611d6484828501611d2e565b91505092915050565b5f73ffffffffffffffffffffffffffffffffffffffff82169050919050565b5f611d9682611d6d565b9050919050565b611da681611d8c565b82525050565b5f602082019050611dbf5f830184611d9d565b92915050565b611dce81611d8c565b8114611dd8575f5ffd5b50565b5f81359050611de981611dc5565b92915050565b5f5f60408385031215611e0557611e04611bc4565b5b5f611e1285828601611ddb565b9250506020611e2385828601611d2e565b9150509250929050565b5f81519050919050565b5f82825260208201905092915050565b5f819050602082019050919050565b5f82825260208201905092915050565b5f611e7082611c7f565b611e7a8185611e56565b9350611e8a818560208601611c99565b611e9381611ca7565b840191505092915050565b5f611ea98383611e66565b905092915050565b5f602082019050919050565b5f611ec782611e2d565b611ed18185611e37565b935083602082028501611ee385611e47565b805f5b85811015611f1e5784840389528151611eff8582611e9e565b9450611f0a83611eb1565b925060208a01995050600181019050611ee6565b50829750879550505050505092915050565b5f6020820190508181035f830152611f488184611ebd565b905092915050565b5f5ffd5b5f5ffd5b7f4e487b71000000000000000000000000000000000000000000000000000000005f52604160045260245ffd5b611f8e82611ca7565b810181811067ffffffffffffffff82111715611fad57611fac611f58565b5b80604052505050565b5f611fbf611bbb565b9050611fcb8282611f85565b919050565b5f67ffffffffffffffff821115611fea57611fe9611f58565b5b611ff382611ca7565b9050602081019050919050565b828183375f83830152505050565b5f61202061201b84611fd0565b611fb6565b90508281526020810184848401111561203c5761203b611f54565b5b612047848285612000565b509392505050565b5f82601f83011261206357612062611f50565b5b813561207384826020860161200e565b91505092915050565b5f6020828403121561209157612090611bc4565b5b5f82013567ffffffffffffffff8111156120ae576120ad611bc8565b5b6120ba8482850161204f565b91505092915050565b5f5f5f606084860312156120da576120d9611bc4565b5b5f6120e786828701611ddb565b93505060206120f886828701611ddb565b925050604061210986828701611d2e565b9150509250925092565b5f6020828403121561212857612127611bc4565b5b5f61213584828501611ddb565b91505092915050565b61214781611d0f565b82525050565b5f6020820190506121605f83018461213e565b92915050565b61216f81611c4c565b8114612179575f5ffd5b50565b5f8135905061218a81612166565b92915050565b5f5f604083850312156121a6576121a5611bc4565b5b5f6121b385828601611ddb565b92505060206121c48582860161217c565b9150509250929050565b5f67ffffffffffffffff8211156121e8576121e7611f58565b5b6121f182611ca7565b9050602081019050919050565b5f61221061220b846121ce565b611fb6565b90508281526020810184848401111561222c5761222b611f54565b5b612237848285612000565b509392505050565b5f82601f83011261225357612252611f50565b5b81356122638482602086016121fe565b91505092915050565b5f5f5f5f6080858703121561228457612283611bc4565b5b5f61229187828801611ddb565b94505060206122a287828801611ddb565b93505060406122b387828801611d2e565b925050606085013567ffffffffffffffff8111156122d4576122d3611bc8565b5b6122e08782880161223f565b91505092959194509250565b5f5f6040838503121561230257612301611bc4565b5b5f61230f85828601611ddb565b925050602061232085828601611ddb565b9150509250929050565b7f4e487b71000000000000000000000000000000000000000000000000000000005f52602260045260245ffd5b5f600282049050600182168061236e57607f821691505b6020821081036123815761238061232a565b5b50919050565b7f4e487b71000000000000000000000000000000000000000000000000000000005f52601160045260245ffd5b5f6123be82611d0f565b91507fffffffffffffffffffffffffffffffffffffffffffffffffffffffffffffffff82036123f0576123ef612387565b5b600182019050919050565b5f819050815f5260205f209050919050565b5f6020601f8301049050919050565b5f82821b905092915050565b5f600883026124577fffffffffffffffffffffffffffffffffffffffffffffffffffffffffffffffff8261241c565b612461868361241c565b95508019841693508086168417925050509392505050565b5f819050919050565b5f61249c61249761249284611d0f565b612479565b611d0f565b9050919050565b5f819050919050565b6124b583612482565b6124c96124c1826124a3565b848454612428565b825550505050565b5f5f905090565b6124e06124d1565b6124eb8184846124ac565b505050565b5b8181101561250e576125035f826124d8565b6001810190506124f1565b5050565b601f82111561255357612524816123fb565b61252d8461240d565b8101602085101561253c578190505b6125506125488561240d565b8301826124f0565b50505b505050565b5f82821c905092915050565b5f6125735f1984600802612558565b1980831691505092915050565b5f61258b8383612564565b9150826002028217905092915050565b6125a482611c7f565b67ffffffffffffffff8111156125bd576125bc611f58565b5b6125c78254612357565b6125d2828285612512565b5f60209050601f831160018114612603575f84156125f1578287015190505b6125fb8582612580565b865550612662565b601f198416612611866123fb565b5f5b8281101561263857848901518255600182019150602085019450602081019050612613565b868310156126555784890151612651601f891682612564565b8355505b6001600288020188555050505b505050505050565b5f60608201905061267d5f830186611d9d565b61268a602083018561213e565b6126976040830184611d9d565b949350505050565b5f81905092915050565b5f6126b382611c7f565b6126bd818561269f565b93506126cd818560208601611c99565b80840191505092915050565b5f6126e482856126a9565b91506126f082846126a9565b91508190509392505050565b7f4e6f20656e7472696573207965740000000000000000000000000000000000005f82015250565b5f612730600e83611c89565b915061273b826126fc565b602082019050919050565b5f6020820190508181035f83015261275d81612724565b9050919050565b5f61276e82611d0f565b915061277983611d0f565b925082820390508181111561279157612790612387565b5b92915050565b7f4e487b71000000000000000000000000000000000000000000000000000000005f52603260045260245ffd5b5f81519050919050565b5f82825260208201905092915050565b5f6127e8826127c4565b6127f281856127ce565b9350612802818560208601611c99565b61280b81611ca7565b840191505092915050565b5f6080820190506128295f830187611d9d565b6128366020830186611d9d565b612843604083018561213e565b818103606083015261285581846127de565b905095945050505050565b5f8151905061286e81611bf7565b92915050565b5f6020828403121561288957612888611bc4565b5b5f61289684828501612860565b91505092915050565b7f4e487b71000000000000000000000000000000000000000000000000000000005f52601260045260245ffd5b5f6040820190506128df5f830185611d9d565b6128ec602083018461213e565b939250505056fea26469706673582212200339aedd40006d933bdb4b07a6d258ce921704672890d94ee69adff5ac4edc2464736f6c634300081d0033a2646970667358221220e2f4c951e7e49b1234bcb1b9744ed950172383e8b19a32a7fb49ba75232b992664736f6c634300081d0033",
    "linkReferences": {}
  },
  "methodIdentifiers": {
    "allSeries(uint256)": "efc934bc",
    "createSeries(string,string,string)": "19cd9dcb",
    "creatorToSeries(address,uint256)": "dc34401f",
    "getAllSeries()": "65514909",
    "getCreatorSeries(address)": "6b9a7cc9"
  },
  "id": 15
}