{
  "abi": [
    {
      "type": "constructor",
      "inputs": [
        {
          "name": "_name",
          "type": "string",
          "internalType": "string"
        },
        {
          "name": "_symbol",
          "type": "string",
          "internalType": "string"
        },
        {
          "name": "_metaDataURI",
          "type": "string",
          "internalType": "string"
        }
      ],
      "stateMutability": "nonpayable"
    },
    {
      "type": "function",
      "name": "addEntry",
      "inputs": [
        {
          "name": "uri",
          "type": "string",
          "internalType": "string"
        },
        {
          "name": "title",
          "type": "string",
          "internalType": "string"
        },
        {
          "name": "description",
          "type": "string",
          "internalType": "string"
        }
      ],
      "outputs": [],
      "stateMutability": "nonpayable"
    },
    {
      "type": "function",
      "name": "approve",
      "inputs": [
        {
          "name": "to",
          "type": "address",
          "internalType": "address"
        },
        {
          "name": "tokenId",
          "type": "uint256",
          "internalType": "uint256"
        }
      ],
      "outputs": [],
      "stateMutability": "nonpayable"
    },
    {
      "type": "function",
      "name": "balanceOf",
      "inputs": [
        {
          "name": "owner",
          "type": "address",
          "internalType": "address"
        }
      ],
      "outputs": [
        {
          "name": "",
          "type": "uint256",
          "internalType": "uint256"
        }
      ],
      "stateMutability": "view"
    },
    {
      "type": "function",
      "name": "getApproved",
      "inputs": [
        {
          "name": "tokenId",
          "type": "uint256",
          "internalType": "uint256"
        }
      ],
      "outputs": [
        {
          "name": "",
          "type": "address",
          "internalType": "address"
        }
      ],
      "stateMutability": "view"
    },
    {
      "type": "function",
      "name": "getCurrentEntry",
      "inputs": [],
      "outputs": [
        {
          "name": "",
          "type": "string",
          "internalType": "string"
        }
      ],
      "stateMutability": "view"
    },
    {
      "type": "function",
      "name": "getEntries",
      "inputs": [],
      "outputs": [
        {
          "name": "",
          "type": "string[]",
          "internalType": "string[]"
        }
      ],
      "stateMutability": "view"
    },
    {
      "type": "function",
      "name": "isApprovedForAll",
      "inputs": [
        {
          "name": "owner",
          "type": "address",
          "internalType": "address"
        },
        {
          "name": "operator",
          "type": "address",
          "internalType": "address"
        }
      ],
      "outputs": [
        {
          "name": "",
          "type": "bool",
          "internalType": "bool"
        }
      ],
      "stateMutability": "view"
    },
    {
      "type": "function",
      "name": "mintNFT",
      "inputs": [],
      "outputs": [],
      "stateMutability": "nonpayable"
    },
    {
      "type": "function",
      "name": "name",
      "inputs": [],
      "outputs": [
        {
          "name": "",
          "type": "string",
          "internalType": "string"
        }
      ],
      "stateMutability": "view"
    },
    {
      "type": "function",
      "name": "owner",
      "inputs": [],
      "outputs": [
        {
          "name": "",
          "type": "address",
          "internalType": "address"
        }
      ],
      "stateMutability": "view"
    },
    {
      "type": "function",
      "name": "ownerOf",
      "inputs": [
        {
          "name": "tokenId",
          "type": "uint256",
          "internalType": "uint256"
        }
      ],
      "outputs": [
        {
          "name": "",
          "type": "address",
          "internalType": "address"
        }
      ],
      "stateMutability": "view"
    },
    {
      "type": "function",
      "name": "renounceOwnership",
      "inputs": [],
      "outputs": [],
      "stateMutability": "nonpayable"
    },
    {
      "type": "function",
      "name": "safeTransferFrom",
      "inputs": [
        {
          "name": "from",
          "type": "address",
          "internalType": "address"
        },
        {
          "name": "to",
          "type": "address",
          "internalType": "address"
        },
        {
          "name": "tokenId",
          "type": "uint256",
          "internalType": "uint256"
        }
      ],
      "outputs": [],
      "stateMutability": "nonpayable"
    },
    {
      "type": "function",
      "name": "safeTransferFrom",
      "inputs": [
        {
          "name": "from",
          "type": "address",
          "internalType": "address"
        },
        {
          "name": "to",
          "type": "address",
          "internalType": "address"
        },
        {
          "name": "tokenId",
          "type": "uint256",
          "internalType": "uint256"
        },
        {
          "name": "data",
          "type": "bytes",
          "internalType": "bytes"
        }
      ],
      "outputs": [],
      "stateMutability": "nonpayable"
    },
    {
      "type": "function",
      "name": "setApprovalForAll",
      "inputs": [
        {
          "name": "operator",
          "type": "address",
          "internalType": "address"
        },
        {
          "name": "approved",
          "type": "bool",
          "internalType": "bool"
        }
      ],
      "outputs": [],
      "stateMutability": "nonpayable"
    },
    {
      "type": "function",
      "name": "supportsInterface",
      "inputs": [
        {
          "name": "interfaceId",
          "type": "bytes4",
          "internalType": "bytes4"
        }
      ],
      "outputs": [
        {
          "name": "",
          "type": "bool",
          "internalType": "bool"
        }
      ],
      "stateMutability": "view"
    },
    {
      "type": "function",
      "name": "symbol",
      "inputs": [],
      "outputs": [
        {
          "name": "",
          "type": "string",
          "internalType": "string"
        }
      ],
      "stateMutability": "view"
    },
    {
      "type": "function",
      "name": "tokenURI",
      "inputs": [],
      "outputs": [
        {
          "name": "",
          "type": "string",
          "internalType": "string"
        }
      ],
      "stateMutability": "view"
    },
    {
      "type": "function",
      "name": "tokenURI",
      "inputs": [
        {
          "name": "tokenId",
          "type": "uint256",
          "internalType": "uint256"
        }
      ],
      "outputs": [
        {
          "name": "",
          "type": "string",
          "internalType": "string"
        }
      ],
      "stateMutability": "view"
    },
    {
      "type": "function",
      "name": "transferFrom",
      "inputs": [
        {
          "name": "from",
          "type": "address",
          "internalType": "address"
        },
        {
          "name": "to",
          "type": "address",
          "internalType": "address"
        },
        {
          "name": "tokenId",
          "type": "uint256",
          "internalType": "uint256"
        }
      ],
      "outputs": [],
      "stateMutability": "nonpayable"
    },
    {
      "type": "function",
      "name": "transferOwnership",
      "inputs": [
        {
          "name": "newOwner",
          "type": "address",
          "internalType": "address"
        }
      ],
      "outputs": [],
      "stateMutability": "nonpayable"
    },
    {
      "type": "event",
      "name": "Approval",
      "inputs": [
        {
          "name": "owner",
          "type": "address",
          "indexed": true,
          "internalType": "address"
        },
        {
          "name": "approved",
          "type": "address",
          "indexed": true,
          "internalType": "address"
        },
        {
          "name": "tokenId",
          "type": "uint256",
          "indexed": true,
          "internalType": "uint256"
        }
      ],
      "anonymous": false
    },
    {
      "type": "event",
      "name": "ApprovalForAll",
      "inputs": [
        {
          "name": "owner",
          "type": "address",
          "indexed": true,
          "internalType": "address"
        },
        {
          "name": "operator",
          "type": "address",
          "indexed": true,
          "internalType": "address"
        },
        {
          "name": "approved",
          "type": "bool",
          "indexed": false,
          "internalType": "bool"
        }
      ],
      "anonymous": false
    },
    {
      "type": "event",
      "name": "EntryAdded",
      "inputs": [
        {
          "name": "entryNumber",
          "type": "uint256",
          "indexed": true,
          "internalType": "uint256"
        },
        {
          "name": "uri",
          "type": "string",
          "indexed": false,
          "internalType": "string"
        },
        {
          "name": "title",
          "type": "string",
          "indexed": false,
          "internalType": "string"
        },
        {
          "name": "description",
          "type": "string",
          "indexed": false,
          "internalType": "string"
        }
      ],
      "anonymous": false
    },
    {
      "type": "event",
      "name": "Minted",
      "inputs": [
        {
          "name": "to",
          "type": "address",
          "indexed": true,
          "internalType": "address"
        },
        {
          "name": "tokenId",
          "type": "uint256",
          "indexed": true,
          "internalType": "uint256"
        }
      ],
      "anonymous": false
    },
    {
      "type": "event",
      "name": "OwnershipTransferred",
      "inputs": [
        {
          "name": "previousOwner",
          "type": "address",
          "indexed": true,
          "internalType": "address"
        },
        {
          "name": "newOwner",
          "type": "address",
          "indexed": true,
          "internalType": "address"
        }
      ],
      "anonymous": false
    },
    {
      "type": "event",
      "name": "Transfer",
      "inputs": [
        {
          "name": "from",
          "type": "address",
          "indexed": true,
          "internalType": "address"
        },
        {
          "name": "to",
          "type": "address",
          "indexed": true,
          "internalType": "address"
        },
        {
          "name": "tokenId",
          "type": "uint256",
          "indexed": true,
          "internalType": "uint256"
        }
      ],
      "anonymous": false
    },
    {
      "type": "error",
      "name": "ERC721IncorrectOwner",
      "inputs": [
        {
          "name": "sender",
          "type": "address",
          "internalType": "address"
        },
        {
          "name": "tokenId",
          "type": "uint256",
          "internalType": "uint256"
        },
        {
          "name": "owner",
          "type": "address",
          "internalType": "address"
        }
      ]
    },
    {
      "type": "error",
      "name": "ERC721InsufficientApproval",
      "inputs": [
        {
          "name": "operator",
          "type": "address",
          "internalType": "address"
        },
        {
          "name": "tokenId",
          "type": "uint256",
          "internalType": "uint256"
        }
      ]
    },
    {
      "type": "error",
      "name": "ERC721InvalidApprover",
      "inputs": [
        {
          "name": "approver",
          "type": "address",
          "internalType": "address"
        }
      ]
    },
    {
      "type": "error",
      "name": "ERC721InvalidOperator",
      "inputs": [
        {
          "name": "operator",
          "type": "address",
          "internalType": "address"
        }
      ]
    },
    {
      "type": "error",
      "name": "ERC721InvalidOwner",
      "inputs": [
        {
          "name": "owner",
          "type": "address",
          "internalType": "address"
        }
      ]
    },
    {
      "type": "error",
      "name": "ERC721InvalidReceiver",
      "inputs": [
        {
          "name": "receiver",
          "type": "address",
          "internalType": "address"
        }
      ]
    },
    {
      "type": "error",
      "name": "ERC721InvalidSender",
      "inputs": [
        {
          "name": "sender",
          "type": "address",
          "internalType": "address"
        }
      ]
    },
    {
      "type": "error",
      "name": "ERC721NonexistentToken",
      "inputs": [
        {
          "name": "tokenId",
          "type": "uint256",
          "internalType": "uint256"
        }
      ]
    },
    {
      "type": "error",
      "name": "OwnableInvalidOwner",
      "inputs": [
        {
          "name": "owner",
          "type": "address",
          "internalType": "address"
        }
      ]
    },
    {
      "type": "error",
      "name": "OwnableUnauthorizedAccount",
      "inputs": [
        {
          "name": "account",
          "type": "address",
          "internalType": "address"
        }
      ]
    }
  ],
  "bytecode": {
    "object": "0x608060405234801561000f575f5ffd5b506040516130bb3803806130bb833981810160405281019061003191906102fd565b338383815f908161004291906105b1565b50806001908161005291906105b1565b5050505f73ffffffffffffffffffffffffffffffffffffffff168173ffffffffffffffffffffffffffffffffffffffff16036100c5575f6040517f1e4fbdf70000000000000000000000000000000000000000000000000000000081526004016100bc91906106bf565b60405180910390fd5b6100d4816100ed60201b60201c565b5080600890816100e491906105b1565b505050506106d8565b5f60065f9054906101000a900473ffffffffffffffffffffffffffffffffffffffff1690508160065f6101000a81548173ffffffffffffffffffffffffffffffffffffffff021916908373ffffffffffffffffffffffffffffffffffffffff1602179055508173ffffffffffffffffffffffffffffffffffffffff168173ffffffffffffffffffffffffffffffffffffffff167f8be0079c531659141344cd1fd0a4f28419497f9722a3daafe3b4186f6b6457e060405160405180910390a35050565b5f604051905090565b5f5ffd5b5f5ffd5b5f5ffd5b5f5ffd5b5f601f19601f8301169050919050565b7f4e487b71000000000000000000000000000000000000000000000000000000005f52604160045260245ffd5b61020f826101c9565b810181811067ffffffffffffffff8211171561022e5761022d6101d9565b5b80604052505050565b5f6102406101b0565b905061024c8282610206565b919050565b5f67ffffffffffffffff82111561026b5761026a6101d9565b5b610274826101c9565b9050602081019050919050565b8281835e5f83830152505050565b5f6102a161029c84610251565b610237565b9050828152602081018484840111156102bd576102bc6101c5565b5b6102c8848285610281565b509392505050565b5f82601f8301126102e4576102e36101c1565b5b81516102f484826020860161028f565b91505092915050565b5f5f5f60608486031215610314576103136101b9565b5b5f84015167ffffffffffffffff811115610331576103306101bd565b5b61033d868287016102d0565b935050602084015167ffffffffffffffff81111561035e5761035d6101bd565b5b61036a868287016102d0565b925050604084015167ffffffffffffffff81111561038b5761038a6101bd565b5b610397868287016102d0565b9150509250925092565b5f81519050919050565b7f4e487b71000000000000000000000000000000000000000000000000000000005f52602260045260245ffd5b5f60028204905060018216806103ef57607f821691505b602082108103610402576104016103ab565b5b50919050565b5f819050815f5260205f209050919050565b5f6020601f8301049050919050565b5f82821b905092915050565b5f600883026104647fffffffffffffffffffffffffffffffffffffffffffffffffffffffffffffffff82610429565b61046e8683610429565b95508019841693508086168417925050509392505050565b5f819050919050565b5f819050919050565b5f6104b26104ad6104a884610486565b61048f565b610486565b9050919050565b5f819050919050565b6104cb83610498565b6104df6104d7826104b9565b848454610435565b825550505050565b5f5f905090565b6104f66104e7565b6105018184846104c2565b505050565b5b81811015610524576105195f826104ee565b600181019050610507565b5050565b601f8211156105695761053a81610408565b6105438461041a565b81016020851015610552578190505b61056661055e8561041a565b830182610506565b50505b505050565b5f82821c905092915050565b5f6105895f198460080261056e565b1980831691505092915050565b5f6105a1838361057a565b9150826002028217905092915050565b6105ba826103a1565b67ffffffffffffffff8111156105d3576105d26101d9565b5b6105dd82546103d8565b6105e8828285610528565b5f60209050601f831160018114610619575f8415610607578287015190505b6106118582610596565b865550610678565b601f19841661062786610408565b5f5b8281101561064e57848901518255600182019150602085019450602081019050610629565b8683101561066b5784890151610667601f89168261057a565b8355505b6001600288020188555050505b505050505050565b5f73ffffffffffffffffffffffffffffffffffffffff82169050919050565b5f6106a982610680565b9050919050565b6106b98161069f565b82525050565b5f6020820190506106d25f8301846106b0565b92915050565b6129d6806106e55f395ff3fe608060405234801561000f575f5ffd5b5060043610610135575f3560e01c806370a08231116100b6578063b88d4fde1161007a578063b88d4fde14610313578063c87b56dd1461032f578063e7a9f27f1461035f578063e9213ca01461037b578063e985e9c514610399578063f2fde38b146103c957610135565b806370a0823114610281578063715018a6146102b15780638da5cb5b146102bb57806395d89b41146102d9578063a22cb465146102f757610135565b806317be85c3116100fd57806317be85c3146101dd57806323b872dd146101fb5780633c130d901461021757806342842e0e146102355780636352211e1461025157610135565b806301ffc9a71461013957806306fdde0314610169578063081812fc14610187578063095ea7b3146101b757806314f710fe146101d3575b5f5ffd5b610153600480360381019061014e9190611c27565b6103e5565b6040516101609190611c6c565b60405180910390f35b6101716104c6565b60405161017e9190611cf5565b60405180910390f35b6101a1600480360381019061019c9190611d48565b610555565b6040516101ae9190611db2565b60405180910390f35b6101d160048036038101906101cc9190611df5565b610570565b005b6101db610586565b005b6101e56105ee565b6040516101f29190611f36565b60405180910390f35b61021560048036038101906102109190611f56565b6106c2565b005b61021f6107c1565b60405161022c9190611cf5565b60405180910390f35b61024f600480360381019061024a9190611f56565b610851565b005b61026b60048036038101906102669190611d48565b610870565b6040516102789190611db2565b60405180910390f35b61029b60048036038101906102969190611fa6565b610881565b6040516102a89190611fe0565b60405180910390f35b6102b9610937565b005b6102c361094a565b6040516102d09190611db2565b60405180910390f35b6102e1610972565b6040516102ee9190611cf5565b60405180910390f35b610311600480360381019061030c9190612023565b610a02565b005b61032d6004803603810190610328919061218d565b610a18565b005b61034960048036038101906103449190611d48565b610a3d565b6040516103569190611cf5565b60405180910390f35b610379600480360381019061037491906122ab565b610aa3565b005b610383610b23565b6040516103909190611cf5565b60405180910390f35b6103b360048036038101906103ae919061234f565b610c25565b6040516103c09190611c6c565b60405180910390f35b6103e360048036038101906103de9190611fa6565b610cb3565b005b5f7f80ac58cd000000000000000000000000000000000000000000000000000000007bffffffffffffffffffffffffffffffffffffffffffffffffffffffff1916827bffffffffffffffffffffffffffffffffffffffffffffffffffffffff191614806104af57507f5b5e139f000000000000000000000000000000000000000000000000000000007bffffffffffffffffffffffffffffffffffffffffffffffffffffffff1916827bffffffffffffffffffffffffffffffffffffffffffffffffffffffff1916145b806104bf57506104be82610d37565b5b9050919050565b60605f80546104d4906123ba565b80601f0160208091040260200160405190810160405280929190818152602001828054610500906123ba565b801561054b5780601f106105225761010080835404028352916020019161054b565b820191905f5260205f20905b81548152906001019060200180831161052e57829003601f168201915b5050505050905090565b5f61055f82610da0565b5061056982610e26565b9050919050565b610582828261057d610e5f565b610e66565b5050565b5f60075f815461059590612417565b91905081905590506105a73382610e78565b803373ffffffffffffffffffffffffffffffffffffffff167f30385c845b448a36257a6a1716e6ad2e1bc2cbe333cde1e69fe849ad6511adfe60405160405180910390a350565b60606009805480602002602001604051908101604052809291908181526020015f905b828210156106b9578382905f5260205f2001805461062e906123ba565b80601f016020809104026020016040519081016040528092919081815260200182805461065a906123ba565b80156106a55780601f1061067c576101008083540402835291602001916106a5565b820191905f5260205f20905b81548152906001019060200180831161068857829003601f168201915b505050505081526020019060010190610611565b50505050905090565b5f73ffffffffffffffffffffffffffffffffffffffff168273ffffffffffffffffffffffffffffffffffffffff1603610732575f6040517f64a0ae920000000000000000000000000000000000000000000000000000000081526004016107299190611db2565b60405180910390fd5b5f6107458383610740610e5f565b610e95565b90508373ffffffffffffffffffffffffffffffffffffffff168173ffffffffffffffffffffffffffffffffffffffff16146107bb578382826040517f64283d7b0000000000000000000000000000000000000000000000000000000081526004016107b29392919061245e565b60405180910390fd5b50505050565b6060600880546107d0906123ba565b80601f01602080910402602001604051908101604052809291908181526020018280546107fc906123ba565b80156108475780601f1061081e57610100808354040283529160200191610847565b820191905f5260205f20905b81548152906001019060200180831161082a57829003601f168201915b5050505050905090565b61086b83838360405180602001604052805f815250610a18565b505050565b5f61087a82610da0565b9050919050565b5f5f73ffffffffffffffffffffffffffffffffffffffff168273ffffffffffffffffffffffffffffffffffffffff16036108f2575f6040517f89c62b640000000000000000000000000000000000000000000000000000000081526004016108e99190611db2565b60405180910390fd5b60035f8373ffffffffffffffffffffffffffffffffffffffff1673ffffffffffffffffffffffffffffffffffffffff1681526020019081526020015f20549050919050565b61093f6110a0565b6109485f611127565b565b5f60065f9054906101000a900473ffffffffffffffffffffffffffffffffffffffff16905090565b606060018054610981906123ba565b80601f01602080910402602001604051908101604052809291908181526020018280546109ad906123ba565b80156109f85780601f106109cf576101008083540402835291602001916109f8565b820191905f5260205f20905b8154815290600101906020018083116109db57829003601f168201915b5050505050905090565b610a14610a0d610e5f565b83836111ea565b5050565b610a238484846106c2565b610a37610a2e610e5f565b85858585611353565b50505050565b6060610a4882610da0565b505f610a526114ff565b90505f815111610a705760405180602001604052805f815250610a9b565b80610a7a84611515565b604051602001610a8b9291906124cd565b6040516020818303038152906040525b915050919050565b610aab6110a0565b600983908060018154018082558091505060019003905f5260205f20015f909190919091509081610adc9190612690565b506009805490507fd9d21bd075cab5223bac736d1eccc8172425a4eac060226ec3a6dc3478d5abb6848484604051610b169392919061275f565b60405180910390a2505050565b60605f60098054905011610b6c576040517f08c379a0000000000000000000000000000000000000000000000000000000008152600401610b63906127f3565b60405180910390fd5b60096001600980549050610b809190612811565b81548110610b9157610b90612844565b5b905f5260205f20018054610ba4906123ba565b80601f0160208091040260200160405190810160405280929190818152602001828054610bd0906123ba565b8015610c1b5780601f10610bf257610100808354040283529160200191610c1b565b820191905f5260205f20905b815481529060010190602001808311610bfe57829003601f168201915b5050505050905090565b5f60055f8473ffffffffffffffffffffffffffffffffffffffff1673ffffffffffffffffffffffffffffffffffffffff1681526020019081526020015f205f8373ffffffffffffffffffffffffffffffffffffffff1673ffffffffffffffffffffffffffffffffffffffff1681526020019081526020015f205f9054906101000a900460ff16905092915050565b610cbb6110a0565b5f73ffffffffffffffffffffffffffffffffffffffff168173ffffffffffffffffffffffffffffffffffffffff1603610d2b575f6040517f1e4fbdf7000000000000000000000000000000000000000000000000000000008152600401610d229190611db2565b60405180910390fd5b610d3481611127565b50565b5f7f01ffc9a7000000000000000000000000000000000000000000000000000000007bffffffffffffffffffffffffffffffffffffffffffffffffffffffff1916827bffffffffffffffffffffffffffffffffffffffffffffffffffffffff1916149050919050565b5f5f610dab836115df565b90505f73ffffffffffffffffffffffffffffffffffffffff168173ffffffffffffffffffffffffffffffffffffffff1603610e1d57826040517f7e273289000000000000000000000000000000000000000000000000000000008152600401610e149190611fe0565b60405180910390fd5b80915050919050565b5f60045f8381526020019081526020015f205f9054906101000a900473ffffffffffffffffffffffffffffffffffffffff169050919050565b5f33905090565b610e738383836001611618565b505050565b610e91828260405180602001604052805f8152506117d7565b5050565b5f5f610ea0846115df565b90505f73ffffffffffffffffffffffffffffffffffffffff168373ffffffffffffffffffffffffffffffffffffffff1614610ee157610ee08184866117fa565b5b5f73ffffffffffffffffffffffffffffffffffffffff168173ffffffffffffffffffffffffffffffffffffffff1614610f6c57610f205f855f5f611618565b600160035f8373ffffffffffffffffffffffffffffffffffffffff1673ffffffffffffffffffffffffffffffffffffffff1681526020019081526020015f205f82825403925050819055505b5f73ffffffffffffffffffffffffffffffffffffffff168573ffffffffffffffffffffffffffffffffffffffff1614610feb57600160035f8773ffffffffffffffffffffffffffffffffffffffff1673ffffffffffffffffffffffffffffffffffffffff1681526020019081526020015f205f82825401925050819055505b8460025f8681526020019081526020015f205f6101000a81548173ffffffffffffffffffffffffffffffffffffffff021916908373ffffffffffffffffffffffffffffffffffffffff160217905550838573ffffffffffffffffffffffffffffffffffffffff168273ffffffffffffffffffffffffffffffffffffffff167fddf252ad1be2c89b69c2b068fc378daa952ba7f163c4a11628f55a4df523b3ef60405160405180910390a4809150509392505050565b6110a8610e5f565b73ffffffffffffffffffffffffffffffffffffffff166110c661094a565b73ffffffffffffffffffffffffffffffffffffffff1614611125576110e9610e5f565b6040517f118cdaa700000000000000000000000000000000000000000000000000000000815260040161111c9190611db2565b60405180910390fd5b565b5f60065f9054906101000a900473ffffffffffffffffffffffffffffffffffffffff1690508160065f6101000a81548173ffffffffffffffffffffffffffffffffffffffff021916908373ffffffffffffffffffffffffffffffffffffffff1602179055508173ffffffffffffffffffffffffffffffffffffffff168173ffffffffffffffffffffffffffffffffffffffff167f8be0079c531659141344cd1fd0a4f28419497f9722a3daafe3b4186f6b6457e060405160405180910390a35050565b5f73ffffffffffffffffffffffffffffffffffffffff168273ffffffffffffffffffffffffffffffffffffffff160361125a57816040517f5b08ba180000000000000000000000000000000000000000000000000000000081526004016112519190611db2565b60405180910390fd5b8060055f8573ffffffffffffffffffffffffffffffffffffffff1673ffffffffffffffffffffffffffffffffffffffff1681526020019081526020015f205f8473ffffffffffffffffffffffffffffffffffffffff1673ffffffffffffffffffffffffffffffffffffffff1681526020019081526020015f205f6101000a81548160ff0219169083151502179055508173ffffffffffffffffffffffffffffffffffffffff168373ffffffffffffffffffffffffffffffffffffffff167f17307eab39ab6107e8899845ad3d59bd9653f200f220920489ca2b5937696c31836040516113469190611c6c565b60405180910390a3505050565b5f8373ffffffffffffffffffffffffffffffffffffffff163b11156114f8578273ffffffffffffffffffffffffffffffffffffffff1663150b7a02868685856040518563ffffffff1660e01b81526004016113b194939291906128c3565b6020604051808303815f875af19250505080156113ec57506040513d601f19601f820116820180604052508101906113e99190612921565b60015b61146d573d805f811461141a576040519150601f19603f3d011682016040523d82523d5f602084013e61141f565b606091505b505f81510361146557836040517f64a0ae9200000000000000000000000000000000000000000000000000000000815260040161145c9190611db2565b60405180910390fd5b805160208201fd5b63150b7a0260e01b7bffffffffffffffffffffffffffffffffffffffffffffffffffffffff1916817bffffffffffffffffffffffffffffffffffffffffffffffffffffffff1916146114f657836040517f64a0ae920000000000000000000000000000000000000000000000000000000081526004016114ed9190611db2565b60405180910390fd5b505b5050505050565b606060405180602001604052805f815250905090565b60605f6001611523846118bd565b0190505f8167ffffffffffffffff81111561154157611540612069565b5b6040519080825280601f01601f1916602001820160405280156115735781602001600182028036833780820191505090505b5090505f82602083010190505b6001156115d4578080600190039150507f3031323334353637383961626364656600000000000000000000000000000000600a86061a8153600a85816115c9576115c861294c565b5b0494505f8503611580575b819350505050919050565b5f60025f8381526020019081526020015f205f9054906101000a900473ffffffffffffffffffffffffffffffffffffffff169050919050565b808061165057505f73ffffffffffffffffffffffffffffffffffffffff168273ffffffffffffffffffffffffffffffffffffffff1614155b15611782575f61165f84610da0565b90505f73ffffffffffffffffffffffffffffffffffffffff168373ffffffffffffffffffffffffffffffffffffffff16141580156116c957508273ffffffffffffffffffffffffffffffffffffffff168173ffffffffffffffffffffffffffffffffffffffff1614155b80156116dc57506116da8184610c25565b155b1561171e57826040517fa9fbf51f0000000000000000000000000000000000000000000000000000000081526004016117159190611db2565b60405180910390fd5b811561178057838573ffffffffffffffffffffffffffffffffffffffff168273ffffffffffffffffffffffffffffffffffffffff167f8c5be1e5ebec7d5bd14f71427d1e84f3dd0314c0f7b2291e5b200ac8c7c3b92560405160405180910390a45b505b8360045f8581526020019081526020015f205f6101000a81548173ffffffffffffffffffffffffffffffffffffffff021916908373ffffffffffffffffffffffffffffffffffffffff16021790555050505050565b6117e18383611a0e565b6117f56117ec610e5f565b5f858585611353565b505050565b611805838383611b01565b6118b8575f73ffffffffffffffffffffffffffffffffffffffff168373ffffffffffffffffffffffffffffffffffffffff160361187957806040517f7e2732890000000000000000000000000000000000000000000000000000000081526004016118709190611fe0565b60405180910390fd5b81816040517f177e802f0000000000000000000000000000000000000000000000000000000081526004016118af929190612979565b60405180910390fd5b505050565b5f5f5f90507a184f03e93ff9f4daa797ed6e38ed64bf6a1f0100000000000000008310611919577a184f03e93ff9f4daa797ed6e38ed64bf6a1f010000000000000000838161190f5761190e61294c565b5b0492506040810190505b6d04ee2d6d415b85acef81000000008310611956576d04ee2d6d415b85acef8100000000838161194c5761194b61294c565b5b0492506020810190505b662386f26fc10000831061198557662386f26fc10000838161197b5761197a61294c565b5b0492506010810190505b6305f5e10083106119ae576305f5e10083816119a4576119a361294c565b5b0492506008810190505b61271083106119d35761271083816119c9576119c861294c565b5b0492506004810190505b606483106119f657606483816119ec576119eb61294c565b5b0492506002810190505b600a8310611a05576001810190505b80915050919050565b5f73ffffffffffffffffffffffffffffffffffffffff168273ffffffffffffffffffffffffffffffffffffffff1603611a7e575f6040517f64a0ae92000000000000000000000000000000000000000000000000000000008152600401611a759190611db2565b60405180910390fd5b5f611a8a83835f610e95565b90505f73ffffffffffffffffffffffffffffffffffffffff168173ffffffffffffffffffffffffffffffffffffffff1614611afc575f6040517f73c6ac6e000000000000000000000000000000000000000000000000000000008152600401611af39190611db2565b60405180910390fd5b505050565b5f5f73ffffffffffffffffffffffffffffffffffffffff168373ffffffffffffffffffffffffffffffffffffffff1614158015611bb857508273ffffffffffffffffffffffffffffffffffffffff168473ffffffffffffffffffffffffffffffffffffffff161480611b795750611b788484610c25565b5b80611bb757508273ffffffffffffffffffffffffffffffffffffffff16611b9f83610e26565b73ffffffffffffffffffffffffffffffffffffffff16145b5b90509392505050565b5f604051905090565b5f5ffd5b5f5ffd5b5f7fffffffff0000000000000000000000000000000000000000000000000000000082169050919050565b611c0681611bd2565b8114611c10575f5ffd5b50565b5f81359050611c2181611bfd565b92915050565b5f60208284031215611c3c57611c3b611bca565b5b5f611c4984828501611c13565b91505092915050565b5f8115159050919050565b611c6681611c52565b82525050565b5f602082019050611c7f5f830184611c5d565b92915050565b5f81519050919050565b5f82825260208201905092915050565b8281835e5f83830152505050565b5f601f19601f8301169050919050565b5f611cc782611c85565b611cd18185611c8f565b9350611ce1818560208601611c9f565b611cea81611cad565b840191505092915050565b5f6020820190508181035f830152611d0d8184611cbd565b905092915050565b5f819050919050565b611d2781611d15565b8114611d31575f5ffd5b50565b5f81359050611d4281611d1e565b92915050565b5f60208284031215611d5d57611d5c611bca565b5b5f611d6a84828501611d34565b91505092915050565b5f73ffffffffffffffffffffffffffffffffffffffff82169050919050565b5f611d9c82611d73565b9050919050565b611dac81611d92565b82525050565b5f602082019050611dc55f830184611da3565b92915050565b611dd481611d92565b8114611dde575f5ffd5b50565b5f81359050611def81611dcb565b92915050565b5f5f60408385031215611e0b57611e0a611bca565b5b5f611e1885828601611de1565b9250506020611e2985828601611d34565b9150509250929050565b5f81519050919050565b5f82825260208201905092915050565b5f819050602082019050919050565b5f82825260208201905092915050565b5f611e7682611c85565b611e808185611e5c565b9350611e90818560208601611c9f565b611e9981611cad565b840191505092915050565b5f611eaf8383611e6c565b905092915050565b5f602082019050919050565b5f611ecd82611e33565b611ed78185611e3d565b935083602082028501611ee985611e4d565b805f5b85811015611f245784840389528151611f058582611ea4565b9450611f1083611eb7565b925060208a01995050600181019050611eec565b50829750879550505050505092915050565b5f6020820190508181035f830152611f4e8184611ec3565b905092915050565b5f5f5f60608486031215611f6d57611f6c611bca565b5b5f611f7a86828701611de1565b9350506020611f8b86828701611de1565b9250506040611f9c86828701611d34565b9150509250925092565b5f60208284031215611fbb57611fba611bca565b5b5f611fc884828501611de1565b91505092915050565b611fda81611d15565b82525050565b5f602082019050611ff35f830184611fd1565b92915050565b61200281611c52565b811461200c575f5ffd5b50565b5f8135905061201d81611ff9565b92915050565b5f5f6040838503121561203957612038611bca565b5b5f61204685828601611de1565b92505060206120578582860161200f565b9150509250929050565b5f5ffd5b5f5ffd5b7f4e487b71000000000000000000000000000000000000000000000000000000005f52604160045260245ffd5b61209f82611cad565b810181811067ffffffffffffffff821117156120be576120bd612069565b5b80604052505050565b5f6120d0611bc1565b90506120dc8282612096565b919050565b5f67ffffffffffffffff8211156120fb576120fa612069565b5b61210482611cad565b9050602081019050919050565b828183375f83830152505050565b5f61213161212c846120e1565b6120c7565b90508281526020810184848401111561214d5761214c612065565b5b612158848285612111565b509392505050565b5f82601f83011261217457612173612061565b5b813561218484826020860161211f565b91505092915050565b5f5f5f5f608085870312156121a5576121a4611bca565b5b5f6121b287828801611de1565b94505060206121c387828801611de1565b93505060406121d487828801611d34565b925050606085013567ffffffffffffffff8111156121f5576121f4611bce565b5b61220187828801612160565b91505092959194509250565b5f67ffffffffffffffff82111561222757612226612069565b5b61223082611cad565b9050602081019050919050565b5f61224f61224a8461220d565b6120c7565b90508281526020810184848401111561226b5761226a612065565b5b612276848285612111565b509392505050565b5f82601f83011261229257612291612061565b5b81356122a284826020860161223d565b91505092915050565b5f5f5f606084860312156122c2576122c1611bca565b5b5f84013567ffffffffffffffff8111156122df576122de611bce565b5b6122eb8682870161227e565b935050602084013567ffffffffffffffff81111561230c5761230b611bce565b5b6123188682870161227e565b925050604084013567ffffffffffffffff81111561233957612338611bce565b5b6123458682870161227e565b9150509250925092565b5f5f6040838503121561236557612364611bca565b5b5f61237285828601611de1565b925050602061238385828601611de1565b9150509250929050565b7f4e487b71000000000000000000000000000000000000000000000000000000005f52602260045260245ffd5b5f60028204905060018216806123d157607f821691505b6020821081036123e4576123e361238d565b5b50919050565b7f4e487b71000000000000000000000000000000000000000000000000000000005f52601160045260245ffd5b5f61242182611d15565b91507fffffffffffffffffffffffffffffffffffffffffffffffffffffffffffffffff8203612453576124526123ea565b5b600182019050919050565b5f6060820190506124715f830186611da3565b61247e6020830185611fd1565b61248b6040830184611da3565b949350505050565b5f81905092915050565b5f6124a782611c85565b6124b18185612493565b93506124c1818560208601611c9f565b80840191505092915050565b5f6124d8828561249d565b91506124e4828461249d565b91508190509392505050565b5f819050815f5260205f209050919050565b5f6020601f8301049050919050565b5f82821b905092915050565b5f6008830261254c7fffffffffffffffffffffffffffffffffffffffffffffffffffffffffffffffff82612511565b6125568683612511565b95508019841693508086168417925050509392505050565b5f819050919050565b5f61259161258c61258784611d15565b61256e565b611d15565b9050919050565b5f819050919050565b6125aa83612577565b6125be6125b682612598565b84845461251d565b825550505050565b5f5f905090565b6125d56125c6565b6125e08184846125a1565b505050565b5b81811015612603576125f85f826125cd565b6001810190506125e6565b5050565b601f82111561264857612619816124f0565b61262284612502565b81016020851015612631578190505b61264561263d85612502565b8301826125e5565b50505b505050565b5f82821c905092915050565b5f6126685f198460080261264d565b1980831691505092915050565b5f6126808383612659565b9150826002028217905092915050565b61269982611c85565b67ffffffffffffffff8111156126b2576126b1612069565b5b6126bc82546123ba565b6126c7828285612607565b5f60209050601f8311600181146126f8575f84156126e6578287015190505b6126f08582612675565b865550612757565b601f198416612706866124f0565b5f5b8281101561272d57848901518255600182019150602085019450602081019050612708565b8683101561274a5784890151612746601f891682612659565b8355505b6001600288020188555050505b505050505050565b5f6060820190508181035f8301526127778186611cbd565b9050818103602083015261278b8185611cbd565b9050818103604083015261279f8184611cbd565b9050949350505050565b7f4e6f20656e7472696573207965740000000000000000000000000000000000005f82015250565b5f6127dd600e83611c8f565b91506127e8826127a9565b602082019050919050565b5f6020820190508181035f83015261280a816127d1565b9050919050565b5f61281b82611d15565b915061282683611d15565b925082820390508181111561283e5761283d6123ea565b5b92915050565b7f4e487b71000000000000000000000000000000000000000000000000000000005f52603260045260245ffd5b5f81519050919050565b5f82825260208201905092915050565b5f61289582612871565b61289f818561287b565b93506128af818560208601611c9f565b6128b881611cad565b840191505092915050565b5f6080820190506128d65f830187611da3565b6128e36020830186611da3565b6128f06040830185611fd1565b8181036060830152612902818461288b565b905095945050505050565b5f8151905061291b81611bfd565b92915050565b5f6020828403121561293657612935611bca565b5b5f6129438482850161290d565b91505092915050565b7f4e487b71000000000000000000000000000000000000000000000000000000005f52601260045260245ffd5b5f60408201905061298c5f830185611da3565b6129996020830184611fd1565b939250505056fea26469706673582212202b138346802ea74a262cc76e7c8b1c8519259bd9a7767b3795aac6bec4d4e6bc64736f6c634300081d0033",
    "linkReferences": {}
  },
  "methodIdentifiers": {
    "addEntry(string,string,string)": "e7a9f27f",
    "approve(address,uint256)": "095ea7b3",
    "balanceOf(address)": "70a08231",
    "getApproved(uint256)": "081812fc",
    "getCurrentEntry()": "e9213ca0",
    "getEntries()": "17be85c3",
    "isApprovedForAll(address,address)": "e985e9c5",
    "mintNFT()": "14f710fe",
    "name()": "06fdde03",
    "owner()": "8da5cb5b",
    "ownerOf(uint256)": "6352211e",
    "renounceOwnership()": "715018a6",
    "safeTransferFrom(address,address,uint256)": "42842e0e",
    "safeTransferFrom(address,address,uint256,bytes)": "b88d4fde",
    "setApprovalForAll(address,bool)": "a22cb465",
    "supportsInterface(bytes4)": "01ffc9a7",
    "symbol()": "95d89b41",
    "tokenURI()": "3c130d90",
    "tokenURI(uint256)": "c87b56dd",
    "transferFrom(address,address,uint256)": "23b872dd",
    "transferOwnership(address)": "f2fde38b"
  },
  "id": 15
}